{
  "transactions": [
    {
      "hash": "0xef5f536738d16464d90df60b88761f11b6c7d082124d0b6d50bf937fdd4745b7",
      "transactionType": "CALL",
      "contractName": null,
      "contractAddress": "0x9d2a3d6b9c9339cf7a680dded69204a4edc3ba80",
      "function": "setFee(bool,uint24)",
      "arguments": [
        "true",
        "0"
      ],
      "transaction": {
        "from": "0xc07e21c78d6ad0917cfcbde8931325c392958892",
        "to": "0x9d2a3d6b9c9339cf7a680dded69204a4edc3ba80",
        "gas": "0x9c60",
        "value": "0x0",
        "input": "0xf6f5529900000000000000000000000000000000000000000000000000000000000000010000000000000000000000000000000000000000000000000000000000000000",
        "nonce": "0x2bf",
        "chainId": "0xa"
      },
      "additionalContracts": [],
      "isFixedGasLimit": false
    }
  ],
  "receipts": [
    {
      "status": "0x1",
      "cumulativeGasUsed": "0x3af358",
      "logs": [
        {
          "address": "0x9d2a3d6b9c9339cf7a680dded69204a4edc3ba80",
          "topics": [
            "0xdc134a4eaf3f79f20e24cb130a22f367098d43b63a37010a093deb3dd364c1dd",
            "0x0000000000000000000000000000000000000000000000000000000000000001"
          ],
          "data": "0x00000000000000000000000000000000000000000000000000000000000000000000000000000000000000000000000000000000000000000000000000000000",
          "blockHash": "0x082b7d749b6b9928627a739bcbf509607e06af125ce348d0ff9c2c29c1e7decd",
          "blockNumber": "0x819b806",
          "transactionHash": "0xef5f536738d16464d90df60b88761f11b6c7d082124d0b6d50bf937fdd4745b7",
          "transactionIndex": "0x9",
          "logIndex": "0x31",
          "removed": false
        }
      ],
      "logsBloom": "0x00000000000000000000000000000000000000000000000000000000040000000000000000000000000000000000000000000000200000000000000000040000000000000000000000000000000000004000000000040000000000000000000000000001000000000000000000000000000000000000000000000000000000000000000000040000000000000000000000000000000000000000000000000000000000000000000000000000000000000000000000000000000000000000000000000000000000000000000000000040000000000000000000000000000040000000000000000000000000000000000000000000000000000000000000000000",
      "type": "0x0",
      "transactionHash": "0xef5f536738d16464d90df60b88761f11b6c7d082124d0b6d50bf937fdd4745b7",
      "transactionIndex": "0x9",
      "blockHash": "0x082b7d749b6b9928627a739bcbf509607e06af125ce348d0ff9c2c29c1e7decd",
      "blockNumber": "0x819b806",
      "gasUsed": "0x7137",
      "effectiveGasPrice": "0xff81f",
      "blobGasUsed": "0x0",
      "from": "0xc07e21c78d6ad0917cfcbde8931325c392958892",
      "to": "0x9d2a3d6b9c9339cf7a680dded69204a4edc3ba80",
      "contractAddress": null,
      "l1BaseFeeScalar": "0x146b",
      "l1BlobBaseFee": "0x1",
      "l1BlobBaseFeeScalar": "0xf79c5",
      "l1Fee": "0x5b495d669",
      "l1GasPrice": "0xaea4f187",
      "l1GasUsed": "0x640"
    }
  ],
  "libraries": [],
  "pending": [],
  "returns": {},
  "timestamp": 1747405250,
  "chain": 10,
  "commit": "ea4ae15"
}