{
  "transactions": [
    {
      "hash": "0x40381ebdd301996b0eede7d0b9e1d90e5b193a3f2cd88ae9a37200305f34e770",
      "transactionType": "CALL",
      "contractName": null,
      "contractAddress": "0x50c10069758f6e8dffef8107a7e0898328613a80",
      "function": "setFee(bool,uint24)",
      "arguments": [
        "false",
        "50000"
      ],
      "transaction": {
        "from": "0xc07e21c78d6ad0917cfcbde8931325c392958892",
        "to": "0x50c10069758f6e8dffef8107a7e0898328613a80",
        "gas": "0xb595",
        "value": "0x0",
        "input": "0xf6f552990000000000000000000000000000000000000000000000000000000000000000000000000000000000000000000000000000000000000000000000000000c350",
        "nonce": "0x211",
        "chainId": "0xa"
      },
      "additionalContracts": [],
      "isFixedGasLimit": false
    }
  ],
  "receipts": [
    {
      "status": "0x1",
      "cumulativeGasUsed": "0x8114d3",
      "logs": [
        {
          "address": "0x50c10069758f6e8dffef8107a7e0898328613a80",
          "topics": [
            "0xdc134a4eaf3f79f20e24cb130a22f367098d43b63a37010a093deb3dd364c1dd",
            "0x0000000000000000000000000000000000000000000000000000000000000000"
          ],
          "data": "0x0000000000000000000000000000000000000000000000000000000000001388000000000000000000000000000000000000000000000000000000000000c350",
          "blockHash": "0xccb552a7b562f01c2ef234276d28ca33b0e1d5926eb5d5a7b28202790caca54b",
          "blockNumber": "0x818792d",
          "transactionHash": "0x40381ebdd301996b0eede7d0b9e1d90e5b193a3f2cd88ae9a37200305f34e770",
          "transactionIndex": "0x17",
          "logIndex": "0x1b8",
          "removed": false
        }
      ],
      "logsBloom": "0x00000000000000000000000000000000000000000000000000000000000000000000000000000000000000000000000000000000200000000000000000000000000000000000000000000000000000000000000000000000000000000000000000000000020000000000000000000800000000000000000000000000000000000000000000040000000000000000000000000000000000000000000000000000000000000000000001000000000000000000000000000000000000000000000000000000000000000000000000000040000000000000000000000000000020000000000040000000000100000000000000000000000000000000000000000000",
      "type": "0x2",
      "transactionHash": "0x40381ebdd301996b0eede7d0b9e1d90e5b193a3f2cd88ae9a37200305f34e770",
      "transactionIndex": "0x17",
      "blockHash": "0xccb552a7b562f01c2ef234276d28ca33b0e1d5926eb5d5a7b28202790caca54b",
      "blockNumber": "0x818792d",
      "gasUsed": "0x7c29",
      "effectiveGasPrice": "0x9414",
      "blobGasUsed": "0x0",
      "from": "0xc07e21c78d6ad0917cfcbde8931325c392958892",
      "to": "0x50c10069758f6e8dffef8107a7e0898328613a80",
      "contractAddress": null,
      "l1BaseFeeScalar": "0x146b",
      "l1BlobBaseFee": "0x1",
      "l1BlobBaseFeeScalar": "0xf79c5",
      "l1Fee": "0x43688d0fa",
      "l1GasPrice": "0x80f64133",
      "l1GasUsed": "0x640"
    }
  ],
  "libraries": [],
  "pending": [],
  "returns": {},
  "timestamp": 1747242001,
  "chain": 10,
  "commit": "4d5afb5"
}