{
  "transactions": [
    {
      "hash": "0x905f1beedf96a9155d6f398ad7736c9cb8d5076a7ee72656f255f5da5b0d172c",
      "transactionType": "CALL",
      "contractName": null,
      "contractAddress": "0xb4f4ad63bcc0102b10e6227236e569dce0d97a80",
      "function": "setFee(bool,uint24)",
      "arguments": [
        "true",
        "500"
      ],
      "transaction": {
        "from": "0xc07e21c78d6ad0917cfcbde8931325c392958892",
        "to": "0xb4f4ad63bcc0102b10e6227236e569dce0d97a80",
        "gas": "0xab9c",
        "value": "0x0",
        "input": "0xf6f55299000000000000000000000000000000000000000000000000000000000000000100000000000000000000000000000000000000000000000000000000000001f4",
        "nonce": "0x390",
        "chainId": "0xa"
      },
      "additionalContracts": [],
      "isFixedGasLimit": false
    }
  ],
  "receipts": [
    {
      "status": "0x1",
      "cumulativeGasUsed": "0x3489e7",
      "logs": [
        {
          "address": "0xb4f4ad63bcc0102b10e6227236e569dce0d97a80",
          "topics": [
            "0xdc134a4eaf3f79f20e24cb130a22f367098d43b63a37010a093deb3dd364c1dd",
            "0x0000000000000000000000000000000000000000000000000000000000000001"
          ],
          "data": "0x000000000000000000000000000000000000000000000000000000000000000000000000000000000000000000000000000000000000000000000000000001f4",
          "blockHash": "0x9f4974ce8e0d6a966baef7505dafbe86da3e3351cb959c735773968fca66229b",
          "blockNumber": "0x81c8083",
          "transactionHash": "0x905f1beedf96a9155d6f398ad7736c9cb8d5076a7ee72656f255f5da5b0d172c",
          "transactionIndex": "0x8",
          "logIndex": "0x52",
          "removed": false
        }
      ],
      "logsBloom": "0x00000000000000000000000000000000000000800000000000000000000000000000000000000000000000000000000000000000200000000000000000040000000000000000000000000000000000000000000000040000000000000000000000000000000000000000000000000000000000000000000000000000000000000000000000040000000000000000000000000000000000000000000000000040000000000000000000000000000000000000000000000000000000000000000000000040000000000000000000000040000000000000000000000000000040000000000000000000000000000000000000000000000000000000000000000000",
      "type": "0x0",
      "transactionHash": "0x905f1beedf96a9155d6f398ad7736c9cb8d5076a7ee72656f255f5da5b0d172c",
      "transactionIndex": "0x8",
      "blockHash": "0x9f4974ce8e0d6a966baef7505dafbe86da3e3351cb959c735773968fca66229b",
      "blockNumber": "0x81c8083",
      "gasUsed": "0x7c3f",
      "effectiveGasPrice": "0xf9d2e",
      "from": "0xc07e21c78d6ad0917cfcbde8931325c392958892",
      "to": "0xb4f4ad63bcc0102b10e6227236e569dce0d97a80",
      "contractAddress": null,
      "l1BaseFeeScalar": "0x146b",
      "l1BlobBaseFee": "0x1",
      "l1BlobBaseFeeScalar": "0xf79c5",
      "l1Fee": "0x3648a670d",
      "l1GasPrice": "0x67da486b",
      "l1GasUsed": "0x640"
    }
  ],
  "libraries": [],
  "pending": [],
  "returns": {},
  "timestamp": 1747770043,
  "chain": 10,
  "commit": "ea4ae15"
}