{
  "transactions": [
    {
      "hash": "0x3392d384150b6173bab3c94391ed09ba832c6b8c87bc077487c66e86c6792f21",
      "transactionType": "CALL",
      "contractName": null,
      "contractAddress": "0xb4f4ad63bcc0102b10e6227236e569dce0d97a80",
      "function": "setFee(bool,uint24)",
      "arguments": [
        "false",
        "1000"
      ],
      "transaction": {
        "from": "0xc07e21c78d6ad0917cfcbde8931325c392958892",
        "to": "0xb4f4ad63bcc0102b10e6227236e569dce0d97a80",
        "gas": "0xb595",
        "value": "0x0",
        "input": "0xf6f55299000000000000000000000000000000000000000000000000000000000000000000000000000000000000000000000000000000000000000000000000000003e8",
        "nonce": "0x3b8",
        "chainId": "0xa"
      },
      "additionalContracts": [],
      "isFixedGasLimit": false
    }
  ],
  "receipts": [
    {
      "status": "0x1",
      "cumulativeGasUsed": "0x234489",
      "logs": [
        {
          "address": "0xb4f4ad63bcc0102b10e6227236e569dce0d97a80",
          "topics": [
            "0xdc134a4eaf3f79f20e24cb130a22f367098d43b63a37010a093deb3dd364c1dd",
            "0x0000000000000000000000000000000000000000000000000000000000000000"
          ],
          "data": "0x000000000000000000000000000000000000000000000000000000000000138800000000000000000000000000000000000000000000000000000000000003e8",
          "blockHash": "0x1ed9b3bace0f91185909dc37fa5e9e53a006c6cb9b98e2648c634af238e2dd90",
          "blockNumber": "0x81dbd99",
          "transactionHash": "0x3392d384150b6173bab3c94391ed09ba832c6b8c87bc077487c66e86c6792f21",
          "transactionIndex": "0xa",
          "logIndex": "0x66",
          "removed": false
        }
      ],
      "logsBloom": "0x00000000000000000000000000000000000000800000000000000000000000000000000000000000000000000000000000000000200000000000000000000000000000000000000000000000000000000000000000000000000000000000000000000000020000000000000000000800000000000000000000000000000000000000000000040000000000000000000000000000000000000000000000000040000000000000000000000000000000000000000000000000000000000000000000000040000000000000000000000040000000000000000000000000000020000000000000000000000000000000000000000000000000000000000000000000",
      "type": "0x0",
      "transactionHash": "0x3392d384150b6173bab3c94391ed09ba832c6b8c87bc077487c66e86c6792f21",
      "transactionIndex": "0xa",
      "blockHash": "0x1ed9b3bace0f91185909dc37fa5e9e53a006c6cb9b98e2648c634af238e2dd90",
      "blockNumber": "0x81dbd99",
      "gasUsed": "0x7c29",
      "effectiveGasPrice": "0x10c88b",
      "from": "0xc07e21c78d6ad0917cfcbde8931325c392958892",
      "to": "0xb4f4ad63bcc0102b10e6227236e569dce0d97a80",
      "contractAddress": null,
      "l1BaseFeeScalar": "0x146b",
      "l1BlobBaseFee": "0x1",
      "l1BlobBaseFeeScalar": "0xf79c5",
      "l1Fee": "0x121ddb7109",
      "l1GasPrice": "0x22a8e2a83",
      "l1GasUsed": "0x640"
    }
  ],
  "libraries": [],
  "pending": [],
  "returns": {},
  "timestamp": 1747932392,
  "chain": 10,
  "commit": "ea4ae15"
}