{
  "transactions": [
    {
      "hash": "0xe5f0e6da28907e4fea3dbcbfc96338769fc082937a2ec3493d0ee7e9faba1b22",
      "transactionType": "CALL",
      "contractName": null,
      "contractAddress": "0xb4f4ad63bcc0102b10e6227236e569dce0d97a80",
      "function": "setFee(bool,uint24)",
      "arguments": [
        "false",
        "1000"
      ],
      "transaction": {
        "from": "0xc07e21c78d6ad0917cfcbde8931325c392958892",
        "to": "0xb4f4ad63bcc0102b10e6227236e569dce0d97a80",
        "gas": "0xb595",
        "value": "0x0",
        "input": "0xf6f55299000000000000000000000000000000000000000000000000000000000000000000000000000000000000000000000000000000000000000000000000000003e8",
        "nonce": "0x30b",
        "chainId": "0xa"
      },
      "additionalContracts": [],
      "isFixedGasLimit": false
    }
  ],
  "receipts": [
    {
      "status": "0x1",
      "cumulativeGasUsed": "0x962c8f",
      "logs": [
        {
          "address": "0xb4f4ad63bcc0102b10e6227236e569dce0d97a80",
          "topics": [
            "0xdc134a4eaf3f79f20e24cb130a22f367098d43b63a37010a093deb3dd364c1dd",
            "0x0000000000000000000000000000000000000000000000000000000000000000"
          ],
          "data": "0x0000000000000000000000000000000000000000000000000000000000000bb800000000000000000000000000000000000000000000000000000000000003e8",
          "blockHash": "0x28455497fa3bf570668bb1e09ade327ea7682b306206f562667c5e6b51a02b57",
          "blockNumber": "0x81a5d7c",
          "transactionHash": "0xe5f0e6da28907e4fea3dbcbfc96338769fc082937a2ec3493d0ee7e9faba1b22",
          "transactionIndex": "0xa",
          "logIndex": "0xe2",
          "removed": false
        }
      ],
      "logsBloom": "0x00000000000000000000000000000000000000800000000000000000000000000000000000000000000000000000000000000000200000000000000000000000000000000000000000000000000000000000000000000000000000000000000000000000020000000000000000000800000000000000000000000000000000000000000000040000000000000000000000000000000000000000000000000040000000000000000000000000000000000000000000000000000000000000000000000040000000000000000000000040000000000000000000000000000020000000000000000000000000000000000000000000000000000000000000000000",
      "type": "0x0",
      "transactionHash": "0xe5f0e6da28907e4fea3dbcbfc96338769fc082937a2ec3493d0ee7e9faba1b22",
      "transactionIndex": "0xa",
      "blockHash": "0x28455497fa3bf570668bb1e09ade327ea7682b306206f562667c5e6b51a02b57",
      "blockNumber": "0x81a5d7c",
      "gasUsed": "0x7c29",
      "effectiveGasPrice": "0xfe0a8",
      "blobGasUsed": "0x0",
      "from": "0xc07e21c78d6ad0917cfcbde8931325c392958892",
      "to": "0xb4f4ad63bcc0102b10e6227236e569dce0d97a80",
      "contractAddress": null,
      "l1BaseFeeScalar": "0x146b",
      "l1BlobBaseFee": "0x1",
      "l1BlobBaseFeeScalar": "0xf79c5",
      "l1Fee": "0x1fdf63a7e",
      "l1GasPrice": "0x3cfa14a9",
      "l1GasUsed": "0x640"
    }
  ],
  "libraries": [],
  "pending": [],
  "returns": {},
  "timestamp": 1747489966,
  "chain": 10,
  "commit": "ea4ae15"
}