{
  "transactions": [
    {
      "hash": "0x1e98f7adb814e193153367fa667c717c865a66667bebea3751c5c53bc26fad33",
      "transactionType": "CALL",
      "contractName": null,
      "contractAddress": "0xb4f4ad63bcc0102b10e6227236e569dce0d97a80",
      "function": "setFee(bool,uint24)",
      "arguments": [
        "false",
        "3000"
      ],
      "transaction": {
        "from": "0xc07e21c78d6ad0917cfcbde8931325c392958892",
        "to": "0xb4f4ad63bcc0102b10e6227236e569dce0d97a80",
        "gas": "0xb595",
        "value": "0x0",
        "input": "0xf6f5529900000000000000000000000000000000000000000000000000000000000000000000000000000000000000000000000000000000000000000000000000000bb8",
        "nonce": "0x2e6",
        "chainId": "0xa"
      },
      "additionalContracts": [],
      "isFixedGasLimit": false
    }
  ],
  "receipts": [
    {
      "status": "0x1",
      "cumulativeGasUsed": "0x2d60b3",
      "logs": [
        {
          "address": "0xb4f4ad63bcc0102b10e6227236e569dce0d97a80",
          "topics": [
            "0xdc134a4eaf3f79f20e24cb130a22f367098d43b63a37010a093deb3dd364c1dd",
            "0x0000000000000000000000000000000000000000000000000000000000000000"
          ],
          "data": "0x00000000000000000000000000000000000000000000000000000000000013880000000000000000000000000000000000000000000000000000000000000bb8",
          "blockHash": "0xa495fc9e21d92cff3ab92f305be73b27d6ea517222ef875093b43a97e809dc3e",
          "blockNumber": "0x819c9bc",
          "transactionHash": "0x1e98f7adb814e193153367fa667c717c865a66667bebea3751c5c53bc26fad33",
          "transactionIndex": "0xa",
          "logIndex": "0x2d",
          "removed": false
        }
      ],
      "logsBloom": "0x00000000000000000000000000000000000000800000000000000000000000000000000000000000000000000000000000000000200000000000000000000000000000000000000000000000000000000000000000000000000000000000000000000000020000000000000000000800000000000000000000000000000000000000000000040000000000000000000000000000000000000000000000000040000000000000000000000000000000000000000000000000000000000000000000000040000000000000000000000040000000000000000000000000000020000000000000000000000000000000000000000000000000000000000000000000",
      "type": "0x0",
      "transactionHash": "0x1e98f7adb814e193153367fa667c717c865a66667bebea3751c5c53bc26fad33",
      "transactionIndex": "0xa",
      "blockHash": "0xa495fc9e21d92cff3ab92f305be73b27d6ea517222ef875093b43a97e809dc3e",
      "blockNumber": "0x819c9bc",
      "gasUsed": "0x7c29",
      "effectiveGasPrice": "0xfaf9c",
      "blobGasUsed": "0x0",
      "from": "0xc07e21c78d6ad0917cfcbde8931325c392958892",
      "to": "0xb4f4ad63bcc0102b10e6227236e569dce0d97a80",
      "contractAddress": null,
      "l1BaseFeeScalar": "0x146b",
      "l1BlobBaseFee": "0x1",
      "l1BlobBaseFeeScalar": "0xf79c5",
      "l1Fee": "0x3700f4338",
      "l1GasPrice": "0x693ae1e3",
      "l1GasUsed": "0x640"
    }
  ],
  "libraries": [],
  "pending": [],
  "returns": {},
  "timestamp": 1747414318,
  "chain": 10,
  "commit": "ea4ae15"
}