{
  "transactions": [
    {
      "hash": "0x5bcdc0700ad1310aec052ce77702118414d53f9f93e448d9b947bdb806006572",
      "transactionType": "CALL",
      "contractName": null,
      "contractAddress": "0xb4f4ad63bcc0102b10e6227236e569dce0d97a80",
      "function": "setFee(bool,uint24)",
      "arguments": [
        "false",
        "5000"
      ],
      "transaction": {
        "from": "0xc07e21c78d6ad0917cfcbde8931325c392958892",
        "to": "0xb4f4ad63bcc0102b10e6227236e569dce0d97a80",
        "gas": "0xb595",
        "value": "0x0",
        "input": "0xf6f5529900000000000000000000000000000000000000000000000000000000000000000000000000000000000000000000000000000000000000000000000000001388",
        "nonce": "0x3b7",
        "chainId": "0xa"
      },
      "additionalContracts": [],
      "isFixedGasLimit": false
    }
  ],
  "receipts": [
    {
      "status": "0x1",
      "cumulativeGasUsed": "0x2c7d78",
      "logs": [
        {
          "address": "0xb4f4ad63bcc0102b10e6227236e569dce0d97a80",
          "topics": [
            "0xdc134a4eaf3f79f20e24cb130a22f367098d43b63a37010a093deb3dd364c1dd",
            "0x0000000000000000000000000000000000000000000000000000000000000000"
          ],
          "data": "0x00000000000000000000000000000000000000000000000000000000000003e80000000000000000000000000000000000000000000000000000000000001388",
          "blockHash": "0x70cd821d760cca2fa55d3073f60da0b69bdd4dc41ba05e4014a5880a26f4ab4e",
          "blockNumber": "0x81dbd4a",
          "transactionHash": "0x5bcdc0700ad1310aec052ce77702118414d53f9f93e448d9b947bdb806006572",
          "transactionIndex": "0xb",
          "logIndex": "0x21",
          "removed": false
        }
      ],
      "logsBloom": "0x00000000000000000000000000000000000000800000000000000000000000000000000000000000000000000000000000000000200000000000000000000000000000000000000000000000000000000000000000000000000000000000000000000000020000000000000000000800000000000000000000000000000000000000000000040000000000000000000000000000000000000000000000000040000000000000000000000000000000000000000000000000000000000000000000000040000000000000000000000040000000000000000000000000000020000000000000000000000000000000000000000000000000000000000000000000",
      "type": "0x0",
      "transactionHash": "0x5bcdc0700ad1310aec052ce77702118414d53f9f93e448d9b947bdb806006572",
      "transactionIndex": "0xb",
      "blockHash": "0x70cd821d760cca2fa55d3073f60da0b69bdd4dc41ba05e4014a5880a26f4ab4e",
      "blockNumber": "0x81dbd4a",
      "gasUsed": "0x7c29",
      "effectiveGasPrice": "0x10f2e8",
      "from": "0xc07e21c78d6ad0917cfcbde8931325c392958892",
      "to": "0xb4f4ad63bcc0102b10e6227236e569dce0d97a80",
      "contractAddress": null,
      "l1BaseFeeScalar": "0x146b",
      "l1BlobBaseFee": "0x1",
      "l1BlobBaseFeeScalar": "0xf79c5",
      "l1Fee": "0x15604722d6",
      "l1GasPrice": "0x28e540702",
      "l1GasUsed": "0x640"
    }
  ],
  "libraries": [],
  "pending": [],
  "returns": {},
  "timestamp": 1747932232,
  "chain": 10,
  "commit": "ea4ae15"
}