{
  "transactions": [
    {
      "hash": "0xbd069c736649a3dca9302c6fea277a239c7977e73e49ebaf5775fa626a9725e3",
      "transactionType": "CALL",
      "contractName": null,
      "contractAddress": "0xb4f4ad63bcc0102b10e6227236e569dce0d97a80",
      "function": "setInternalAddress(address,bool)",
      "arguments": [
        "0x053DF845978AbbF2a840DE706CB1c93CC23b7333",
        "true"
      ],
      "transaction": {
        "from": "0xc07e21c78d6ad0917cfcbde8931325c392958892",
        "to": "0xb4f4ad63bcc0102b10e6227236e569dce0d97a80",
        "gas": "0x11585",
        "value": "0x0",
        "input": "0x7fa4a5bb000000000000000000000000053df845978abbf2a840de706cb1c93cc23b73330000000000000000000000000000000000000000000000000000000000000001",
        "nonce": "0x3ba",
        "chainId": "0xa"
      },
      "additionalContracts": [],
      "isFixedGasLimit": false
    }
  ],
  "receipts": [
    {
      "status": "0x1",
      "cumulativeGasUsed": "0x2a0307",
      "logs": [
        {
          "address": "0xb4f4ad63bcc0102b10e6227236e569dce0d97a80",
          "topics": [
            "0x1323417936e27357a937ed81a4cf2e352d89f44cf1fa9e360b84f5abb16f5cff",
            "0x000000000000000000000000053df845978abbf2a840de706cb1c93cc23b7333"
          ],
          "data": "0x0000000000000000000000000000000000000000000000000000000000000001",
          "blockHash": "0x809ff4695cb26fe6054d7f64fb50ac9eb733c557a5c438de3697baabdab8c26c",
          "blockNumber": "0x81dc5a4",
          "transactionHash": "0xbd069c736649a3dca9302c6fea277a239c7977e73e49ebaf5775fa626a9725e3",
          "transactionIndex": "0xc",
          "logIndex": "0x1d",
          "removed": false
        }
      ],
      "logsBloom": "0x00000000000000000000000000000000000000800000000000000000000000000000000000000000000000000000000000000000000000000000000000000000000000000000000000000000000000000000000000000000000000000000000000000000000000000000000000000000000000000000000000000000000000000000000000000000000000000000000000000000000000000000000000000040000000000000000002000000000000000000000000000000040000008000000000000040000000000000000000000000000040800000000000000000000000000000000000000000000000000000800000000000000000000000000000000000",
      "type": "0x0",
      "transactionHash": "0xbd069c736649a3dca9302c6fea277a239c7977e73e49ebaf5775fa626a9725e3",
      "transactionIndex": "0xc",
      "blockHash": "0x809ff4695cb26fe6054d7f64fb50ac9eb733c557a5c438de3697baabdab8c26c",
      "blockNumber": "0x81dc5a4",
      "gasUsed": "0xbdc2",
      "effectiveGasPrice": "0xf8308",
      "from": "0xc07e21c78d6ad0917cfcbde8931325c392958892",
      "to": "0xb4f4ad63bcc0102b10e6227236e569dce0d97a80",
      "contractAddress": null,
      "l1BaseFeeScalar": "0x146b",
      "l1BlobBaseFee": "0x1",
      "l1BlobBaseFeeScalar": "0xf79c5",
      "l1Fee": "0x1aa0547fe5",
      "l1GasPrice": "0x32f09dbd2",
      "l1GasUsed": "0x640"
    }
  ],
  "libraries": [],
  "pending": [],
  "returns": {},
  "timestamp": 1747936510,
  "chain": 10,
  "commit": "ea4ae15"
}