{
  "transactions": [
    {
      "hash": "0xa0201e026b539b69d60bb629af576731d7afd5c24b4029e6fea7726c6bdff9b6",
      "transactionType": "CALL",
      "contractName": null,
      "contractAddress": "0xb4f4ad63bcc0102b10e6227236e569dce0d97a80",
      "function": "setInternalAddress(address,bool)",
      "arguments": [
        "0xC07E21c78d6Ad0917cfCBDe8931325C392958892",
        "true"
      ],
      "transaction": {
        "from": "0xc07e21c78d6ad0917cfcbde8931325c392958892",
        "to": "0xb4f4ad63bcc0102b10e6227236e569dce0d97a80",
        "gas": "0x11585",
        "value": "0x0",
        "input": "0x7fa4a5bb000000000000000000000000c07e21c78d6ad0917cfcbde8931325c3929588920000000000000000000000000000000000000000000000000000000000000001",
        "nonce": "0x330",
        "chainId": "0xa"
      },
      "additionalContracts": [],
      "isFixedGasLimit": false
    }
  ],
  "receipts": [
    {
      "status": "0x1",
      "cumulativeGasUsed": "0x1f2d3e",
      "logs": [
        {
          "address": "0xb4f4ad63bcc0102b10e6227236e569dce0d97a80",
          "topics": [
            "0x1323417936e27357a937ed81a4cf2e352d89f44cf1fa9e360b84f5abb16f5cff",
            "0x000000000000000000000000c07e21c78d6ad0917cfcbde8931325c392958892"
          ],
          "data": "0x0000000000000000000000000000000000000000000000000000000000000001",
          "blockHash": "0x90bf1ef7c9a6752c4f4d9c17a591aef5c47f6a60662c2fd2cd3eabf52862a9f7",
          "blockNumber": "0x81afe75",
          "transactionHash": "0xa0201e026b539b69d60bb629af576731d7afd5c24b4029e6fea7726c6bdff9b6",
          "transactionIndex": "0x7",
          "logIndex": "0xb",
          "removed": false
        }
      ],
      "logsBloom": "0x00000000000000200000000000000000000000800000000000000000000000000000000000000000000000000000000000000000000000000000000000000000000000000000000000000000000000000000000000000000000000000000000000000000000000000000000000000000000000000000000000000000000000000000000000000000000000000000000000000000100000000000000000000040000000000000000002000000080000000000000000000000040000008000000000000040000000000000000000000000000000000000000000000000000000000000000000000000000000000000000000000000000000000000000000000000",
      "type": "0x0",
      "transactionHash": "0xa0201e026b539b69d60bb629af576731d7afd5c24b4029e6fea7726c6bdff9b6",
      "transactionIndex": "0x7",
      "blockHash": "0x90bf1ef7c9a6752c4f4d9c17a591aef5c47f6a60662c2fd2cd3eabf52862a9f7",
      "blockNumber": "0x81afe75",
      "gasUsed": "0xbdc2",
      "effectiveGasPrice": "0xf6671",
      "blobGasUsed": "0x0",
      "from": "0xc07e21c78d6ad0917cfcbde8931325c392958892",
      "to": "0xb4f4ad63bcc0102b10e6227236e569dce0d97a80",
      "contractAddress": null,
      "l1BaseFeeScalar": "0x146b",
      "l1BlobBaseFee": "0x1",
      "l1BlobBaseFeeScalar": "0xf79c5",
      "l1Fee": "0xee61fbf3",
      "l1GasPrice": "0x1c80f731",
      "l1GasUsed": "0x640"
    }
  ],
  "libraries": [],
  "pending": [],
  "returns": {},
  "timestamp": 1747572384,
  "chain": 10,
  "commit": "ea4ae15"
}