{
  "transactions": [
    {
      "hash": "0xc856baa2c312b85c868511bf2007e30dd289e2fcf1f5e607b1afbbad92709fcd",
      "transactionType": "CALL",
      "contractName": null,
      "contractAddress": "0xb4f4ad63bcc0102b10e6227236e569dce0d97a80",
      "function": "setInternalAddress(address,bool)",
      "arguments": [
        "0x6D3D1fFaf82fc445c3eeE34E030f4BeceE7047A0",
        "true"
      ],
      "transaction": {
        "from": "0xc07e21c78d6ad0917cfcbde8931325c392958892",
        "to": "0xb4f4ad63bcc0102b10e6227236e569dce0d97a80",
        "gas": "0x11585",
        "value": "0x0",
        "input": "0x7fa4a5bb0000000000000000000000006d3d1ffaf82fc445c3eee34e030f4becee7047a00000000000000000000000000000000000000000000000000000000000000001",
        "nonce": "0x389",
        "chainId": "0xa"
      },
      "additionalContracts": [],
      "isFixedGasLimit": false
    }
  ],
  "receipts": [
    {
      "status": "0x1",
      "cumulativeGasUsed": "0x79a00c",
      "logs": [
        {
          "address": "0xb4f4ad63bcc0102b10e6227236e569dce0d97a80",
          "topics": [
            "0x1323417936e27357a937ed81a4cf2e352d89f44cf1fa9e360b84f5abb16f5cff",
            "0x0000000000000000000000006d3d1ffaf82fc445c3eee34e030f4becee7047a0"
          ],
          "data": "0x0000000000000000000000000000000000000000000000000000000000000001",
          "blockHash": "0xbbd6b85faf9cbb59fd1cd6e345a0df48d9bea9a9eb094d53d8e8c18ce7f6c75f",
          "blockNumber": "0x81bf826",
          "transactionHash": "0xc856baa2c312b85c868511bf2007e30dd289e2fcf1f5e607b1afbbad92709fcd",
          "transactionIndex": "0x25",
          "logIndex": "0x9c",
          "removed": false
        }
      ],
      "logsBloom": "0x00000000000000000000000000000000000000800000000200000000000000000000000000000000000000000000000000000000000000000000000000000000000000000000000000000000000000000000000000000000000000000000000000000000000000000000000000000000000000000000000000000000000000000000000000000000000000000000000000000000000000000000040000000040000000000000000002000000000000000000000000000000040000008000000000000040000000000000000000000000000000000000000000000000000000000000000000000000000000000200000000000000000000000000000000000000",
      "type": "0x0",
      "transactionHash": "0xc856baa2c312b85c868511bf2007e30dd289e2fcf1f5e607b1afbbad92709fcd",
      "transactionIndex": "0x25",
      "blockHash": "0xbbd6b85faf9cbb59fd1cd6e345a0df48d9bea9a9eb094d53d8e8c18ce7f6c75f",
      "blockNumber": "0x81bf826",
      "gasUsed": "0xbdc2",
      "effectiveGasPrice": "0xfa7ed",
      "from": "0xc07e21c78d6ad0917cfcbde8931325c392958892",
      "to": "0xb4f4ad63bcc0102b10e6227236e569dce0d97a80",
      "contractAddress": null,
      "l1BaseFeeScalar": "0x146b",
      "l1BlobBaseFee": "0x1",
      "l1BlobBaseFeeScalar": "0xf79c5",
      "l1Fee": "0x14ebdd811",
      "l1GasPrice": "0x2806899a",
      "l1GasUsed": "0x640"
    }
  ],
  "libraries": [],
  "pending": [],
  "returns": {},
  "timestamp": 1747700225,
  "chain": 10,
  "commit": "ea4ae15"
}