{
  "transactions": [
    {
      "hash": "0x0bdf57e2afb725c3f7ad1fe6af28fc2ebfae37872d84bd5fc01c745f630eab3e",
      "transactionType": "CALL",
      "contractName": null,
      "contractAddress": "0x50c10069758f6e8dffef8107a7e0898328613a80",
      "function": "setInternalAddress(address,bool)",
      "arguments": [
        "0xDbe480D24045c6cb575eF44Dc22c8925472e22eB",
        "true"
      ],
      "transaction": {
        "from": "0xc07e21c78d6ad0917cfcbde8931325c392958892",
        "to": "0x50c10069758f6e8dffef8107a7e0898328613a80",
        "gas": "0x11585",
        "value": "0x0",
        "input": "0x7fa4a5bb000000000000000000000000dbe480d24045c6cb575ef44dc22c8925472e22eb0000000000000000000000000000000000000000000000000000000000000001",
        "nonce": "0x214",
        "chainId": "0xa"
      },
      "additionalContracts": [],
      "isFixedGasLimit": false
    }
  ],
  "receipts": [
    {
      "status": "0x1",
      "cumulativeGasUsed": "0x2a4ecb",
      "logs": [
        {
          "address": "0x50c10069758f6e8dffef8107a7e0898328613a80",
          "topics": [
            "0x1323417936e27357a937ed81a4cf2e352d89f44cf1fa9e360b84f5abb16f5cff",
            "0x000000000000000000000000dbe480d24045c6cb575ef44dc22c8925472e22eb"
          ],
          "data": "0x0000000000000000000000000000000000000000000000000000000000000001",
          "blockHash": "0x4012d9c7b9293b6587b21fa6667bdc2168a340559a1cab94dcf126d59bd1b43b",
          "blockNumber": "0x8187cb4",
          "transactionHash": "0x0bdf57e2afb725c3f7ad1fe6af28fc2ebfae37872d84bd5fc01c745f630eab3e",
          "transactionIndex": "0x6",
          "logIndex": "0x9",
          "removed": false
        }
      ],
      "logsBloom": "0x00000000000000000000000000000000000000000001000000000000000000000000000000000000000000000000000000000000000000000000000000000000000000000000000000000000000000000000000000000000000000000000000000000000000000000000000000000000000000000000000000000000000000000000008000000000000000000000000000000000000000000000000000000000000000000000000003000000000000000000000000000000040000008000000000000040000000000000000000000000000000000000000000000000000000000000000040000000000100000000000000000000000000000000000000000000",
      "type": "0x0",
      "transactionHash": "0x0bdf57e2afb725c3f7ad1fe6af28fc2ebfae37872d84bd5fc01c745f630eab3e",
      "transactionIndex": "0x6",
      "blockHash": "0x4012d9c7b9293b6587b21fa6667bdc2168a340559a1cab94dcf126d59bd1b43b",
      "blockNumber": "0x8187cb4",
      "gasUsed": "0xbdc2",
      "effectiveGasPrice": "0xfb369",
      "blobGasUsed": "0x0",
      "from": "0xc07e21c78d6ad0917cfcbde8931325c392958892",
      "to": "0x50c10069758f6e8dffef8107a7e0898328613a80",
      "contractAddress": null,
      "l1BaseFeeScalar": "0x146b",
      "l1BlobBaseFee": "0x1",
      "l1BlobBaseFeeScalar": "0xf79c5",
      "l1Fee": "0x60831c475",
      "l1GasPrice": "0xb8a43e16",
      "l1GasUsed": "0x640"
    }
  ],
  "libraries": [],
  "pending": [],
  "returns": {},
  "timestamp": 1747243807,
  "chain": 10,
  "commit": "4d5afb5"
}