{
  "transactions": [
    {
      "hash": "0x58b83d80f64f8627c7545e7b22d8887c6ca91bd23b0f2fe2b8990d6411f4cc87",
      "transactionType": "CALL",
      "contractName": null,
      "contractAddress": "0x02af1609fe1bc110cd2c41a87edbf49fd3967a80",
      "function": "setInternalAddress(address,bool)",
      "arguments": [
        "0x07d9d75Ebe3f7C14a166c80717F394547ce9461D",
        "true"
      ],
      "transaction": {
        "from": "0xc07e21c78d6ad0917cfcbde8931325c392958892",
        "to": "0x02af1609fe1bc110cd2c41a87edbf49fd3967a80",
        "gas": "0x11585",
        "value": "0x0",
        "input": "0x7fa4a5bb00000000000000000000000007d9d75ebe3f7c14a166c80717f394547ce9461d0000000000000000000000000000000000000000000000000000000000000001",
        "nonce": "0x2d9",
        "chainId": "0xa"
      },
      "additionalContracts": [],
      "isFixedGasLimit": false
    }
  ],
  "receipts": [
    {
      "status": "0x1",
      "cumulativeGasUsed": "0x100c44",
      "logs": [
        {
          "address": "0x02af1609fe1bc110cd2c41a87edbf49fd3967a80",
          "topics": [
            "0x1323417936e27357a937ed81a4cf2e352d89f44cf1fa9e360b84f5abb16f5cff",
            "0x00000000000000000000000007d9d75ebe3f7c14a166c80717f394547ce9461d"
          ],
          "data": "0x0000000000000000000000000000000000000000000000000000000000000001",
          "blockHash": "0xdcc43a7753126012fe8d7f0c9e9bb643dea77fa15ea2e9f88bb5756ca885c650",
          "blockNumber": "0x819bd53",
          "transactionHash": "0x58b83d80f64f8627c7545e7b22d8887c6ca91bd23b0f2fe2b8990d6411f4cc87",
          "transactionIndex": "0x9",
          "logIndex": "0xf",
          "removed": false
        }
      ],
      "logsBloom": "0x00000000000002000000000000000000000000000000000000000000000000000000000000000000000000000000000000000000000000000000000000000000000100000000000000002000000000000000000000000000000000000000000000000100000000000000000000000000000000000000000000000000000000000000000000000000000000000000000000000000000000000000000000000000000000000000000002000000000000000000000000000000040000008000000000000000000000000000000000000000000000000000000000000000000000000000000000000000000000000001000000000010000000000000000000000000",
      "type": "0x0",
      "transactionHash": "0x58b83d80f64f8627c7545e7b22d8887c6ca91bd23b0f2fe2b8990d6411f4cc87",
      "transactionIndex": "0x9",
      "blockHash": "0xdcc43a7753126012fe8d7f0c9e9bb643dea77fa15ea2e9f88bb5756ca885c650",
      "blockNumber": "0x819bd53",
      "gasUsed": "0xbdc2",
      "effectiveGasPrice": "0xfb08a",
      "blobGasUsed": "0x0",
      "from": "0xc07e21c78d6ad0917cfcbde8931325c392958892",
      "to": "0x02af1609fe1bc110cd2c41a87edbf49fd3967a80",
      "contractAddress": null,
      "l1BaseFeeScalar": "0x146b",
      "l1BlobBaseFee": "0x1",
      "l1BlobBaseFeeScalar": "0xf79c5",
      "l1Fee": "0x6e9d2185b",
      "l1GasPrice": "0xd39ebaa0",
      "l1GasUsed": "0x640"
    }
  ],
  "libraries": [],
  "pending": [],
  "returns": {},
  "timestamp": 1747407963,
  "chain": 10,
  "commit": "ea4ae15"
}