{
  "transactions": [
    {
      "hash": "0x986038a40bfac1d03a78d852f1b71953494b0008c4d127162272e7d8b2dd9a05",
      "transactionType": "CALL",
      "contractName": null,
      "contractAddress": "0xdb5c81d1d9cab87482372863053455526629ba80",
      "function": "setFee(bool,uint24)",
      "arguments": [
        "false",
        "1000"
      ],
      "transaction": {
        "from": "0xc07e21c78d6ad0917cfcbde8931325c392958892",
        "to": "0xdb5c81d1d9cab87482372863053455526629ba80",
        "gas": "0xb595",
        "value": "0x0",
        "input": "0xf6f55299000000000000000000000000000000000000000000000000000000000000000000000000000000000000000000000000000000000000000000000000000003e8",
        "nonce": "0x19",
        "chainId": "0x82"
      },
      "additionalContracts": [],
      "isFixedGasLimit": false
    }
  ],
  "receipts": [
    {
      "status": "0x1",
      "cumulativeGasUsed": "0x1e4436",
      "logs": [
        {
          "address": "0xdb5c81d1d9cab87482372863053455526629ba80",
          "topics": [
            "0xdc134a4eaf3f79f20e24cb130a22f367098d43b63a37010a093deb3dd364c1dd",
            "0x0000000000000000000000000000000000000000000000000000000000000000"
          ],
          "data": "0x000000000000000000000000000000000000000000000000000000000000271000000000000000000000000000000000000000000000000000000000000003e8",
          "blockHash": "0x691949e2fc298845b68000a316fb09c502aeb84892f97b02e211123000af93bd",
          "blockNumber": "0x115cf2d",
          "transactionHash": "0x986038a40bfac1d03a78d852f1b71953494b0008c4d127162272e7d8b2dd9a05",
          "transactionIndex": "0x6",
          "logIndex": "0x6",
          "removed": false
        }
      ],
      "logsBloom": "0x00000000000000000000000000000000000000000000000000000000000000000000000000000000000000000000000000000000200000000000000000000000000000000000000000000000000000000000000000000000000000000000000000000000020000000000000000000800000000000000000000000000000000000000000000040000000000004004000000000000000000000000000000000000000000400000000000000000000000000000000000000000000000000000000000000000000000000000000000000040000000000000000000000000000020000000000000000000000000000000000000000000000000000000000000000000",
      "type": "0x2",
      "transactionHash": "0x986038a40bfac1d03a78d852f1b71953494b0008c4d127162272e7d8b2dd9a05",
      "transactionIndex": "0x6",
      "blockHash": "0x691949e2fc298845b68000a316fb09c502aeb84892f97b02e211123000af93bd",
      "blockNumber": "0x115cf2d",
      "gasUsed": "0x7c29",
      "effectiveGasPrice": "0x1a5",
      "from": "0xc07e21c78d6ad0917cfcbde8931325c392958892",
      "to": "0xdb5c81d1d9cab87482372863053455526629ba80",
      "contractAddress": null,
      "l1BaseFeeScalar": "0x7d0",
      "l1BlobBaseFee": "0x1",
      "l1BlobBaseFeeScalar": "0xdbba0",
      "l1Fee": "0x1d444a05a",
      "l1GasPrice": "0x92557200",
      "l1GasUsed": "0x640"
    }
  ],
  "libraries": [],
  "pending": [],
  "returns": {},
  "timestamp": 1748954869,
  "chain": 130,
  "commit": "ea4ae15"
}